:0200000400807A
:2000000042583234008012001C14000019821200000004000000070008003B603511012953
:20002000B0B56946427800AF9206920FD31DDB08DB00CB1A9D4605006946007801F08EF9F0
:20004000072101206B786C461B071B0FDA100B409840A25CBD461040431E9841C0B2B0BDFF
:20006000F8B56A46447800AFA406A40FE31DDB08DB00D31A9D460500220000216846D9F608
:200080004EFD07226B786E461B071B0FD9101340063A9A40287872546946220001F069F929
:2000A000BD46F8BD10B5064C064B9C4200D310BD626820680021D9F632FD0834F4E7C04614
:2000C000049412000C94120070B5050007480E00140000F0F3F8012032002900404200F060
:2000E00011F9001B43425841C0B270BDB71DC1048021F0B53F4B404C1B6985B02200180036
:200100004900009301F084F83C4B3D4D22682B603C4B9A424CD13C4B3C482B60009B6268F5
:20012000A1681818FFF7D0FF00285ED08022384B52012B60374B00211868D9F6F0FCA3687F
:2001400000261C0B1A050133120DFF3302921A05511E8A411B0BD3180393A3B201932E4AB9
:20016000F51C009B2D03AF180133019AFF33FF1896421FD3D51C1403E418214E274B2D03E5
:2001800001212800336001F0CFF820000024214F02993A6801F03CF83A680299280001F05E
:2001A00086F81F4B3360039B9C4216D11D4B336005B0F0BD0121280001F0B6F88021154C19
:2001C00049012268380001F023F8802122684901280001F06CF80136C1E7009B2003C018A0
:2001E000012101F0A1F80134DDE780239B012B60DEE7C046F07F1200149812000110000075
:200200000C94120078563412021000000001800003100000C093120000D0FFFF041000002B
:200220000510000006100000B0B500AF72B680221D4B1201DA67202000F014FAFFF732FF94
:2002400000F056FA00F0D0F900F0FAF900F024FF164C20001A3000F031FD00F049FD00F09F
:2002600077F83F22E37E9343802B09D120001C30FFF7D6FE002803D120001E30FFF7F0FE6E
:2002800000F06CF8FFF734FF094B1B6883F3088821002000074B18311C681030064B0022F1
:2002A000A047BD46B0BDC04604E100E0F07F12000030800004308000993300001F23002108
:2002C0000122F0B5104202D014009C4021434008013BF7D2802400220126094D64001300D7
:2002E00008201F005B08374000D04B4001380028F7D1900001322B50A242F0D1F0BDC046C3
:200300001094120030B5FF25074C8A18914201D1C04330BD0B78013143402B409B001B59E2
:20032000000A5840F2E7C046109412000722064B9A6080221204DA60044A1A6105225A6076
:20034000BFF34F8F7047C04690ED00E02D00021010B5002000F0E0F910BD000010B500F084
:20036000F9F90022014B5A6010BDC04690ED00E010B5FFF7DBFF00F007FA10BD10B54020BB
:20038000002900D0802000F03DF910BD10B5202000F060F910BD0000002905D14022094B01
:2003A0001860094B1A607047012903D14022074BDA67F8E70229F6D1C023034A5B003E3182
:2003C000D150F0E71098120000E100E004E100E010B50200032908D8080000F0CFFF020743
:2003E0000C100021074800F071FE10BD0021054800F06FFEF9E70122034B1A70F5E7024B76
:200400000022FAE78899120080991200704710B58020002903D1C00000F0F4F810BD0001F8
:20042000FAE7802010B5800100F014F910BD000010B5052A11D8100000F0A0FF0310131673
:200440001E210F220F4919200B6A93431A00032313430B620C2100F043F910BD0D211A20BF
:20046000F9E70D211B20F6E70F23064A1C20116A0B4313620D21EEE705211D20EBE71C21E5
:200480001820E8E7002013204020704710B5012404480A00036C2240A34319001143016422
:2004A00010BDC0460020132010B58020002903D1400000F0A7F810BD8000FAE700DF704721
:2004C00001DF704702DF704703DF704704DF7047F8B50D0016001F000400FFF749FF3B004E
:2004E00032002900200000F032FE0400FFF736FF2000F8BD10B5EFF31084002C02D0FFF72E
:20050000E7FF10BDFFF7DAFFFBE770B50D0016000400FFF72DFF32002900200000F02BFE75
:200520000400FFF71BFF200070BD10B5EFF31083002B02D0FFF7E9FF10BDFFF7C1FFFBE7E0
:20054000F8B50D0016001F000400FFF711FF3B0032002900200000F033FE0400FFF7FEFED5
:200560002000F8BD10B5EFF31084002C02D0FFF7E7FF10BDFFF7A6FFFBE770B50D001600FF
:200580000400FFF7F5FE32002900200000F013FE0400FFF7E3FE200070BD10B5EFF3108390
:2005A000002B02D0FFF7E9FF10BDFFF78DFFFBE770B50D0016000400FFF7DAFE32002900BA
:2005C000200000F001FE0400FFF7C8FE200070BD10B5EFF31083002B02D0FFF7E9FF10BD1D
:2005E000FFF774FFFBE70000034B044A13615361034A136153617047AAAAAAAA00201320C5
:200600000090142010B5EFF3108272B6094B0A495861084206D059690142FCD1002A00D168
:2006200062B610BD05490842F8D0040059698C43FBD1F3E700201320AAAAAAAA55555555EB
:200640000022034B5A62C02252011A627047C04600201320024B9861400898617047C04669
:2006600000201320024B9861400898617047C0460090142030B5EFF3108472B6164BCA076A
:200680001DD51A6802431A605A688D071AD502435A609A684D0717D502439A60DA680D070C
:2006A00014D50243DA601A69C90611D5104318611A680A4B5A65002C00D162B630BD1A68B4
:2006C0008243E0E78243E3E78243E6E78243E9E782431A61ECE7C046C49312000010202006
:2006E0000123834010B51800FFF7C4FF10BD00000022034B1A660332DA655A657047C046D0
:20070000001020200122034B9A61DA61DA69002AFCD17047001012200B4B70B51B680500AC
:200720000121002098470021084B094C1B6808009847FFF7E7FF656000F02CFB9C235B058E
:20074000A060E36070BDC046BC931200B89312000010122070B5202000F00AFB051E0DD1C8
:20076000074B084E1B6801009847F46800F00AFBFF239C432043FE3BF0603360280070BD48
:20078000B89312000010122010B500F00BFB041E05D1044B01211860034B1B68984720004E
:2007A00010BDC04600101220B893120070B588B0040002A803610F4B8260838200238375FC
:2007C0006B4622000E00DD1D60322900C26000F06BFC2661287800F071FC0423A26A1A42F7
:2007E000FCD00122A36A1340FCD1A360236108B070BDC0464092FFFF70B50400204D6B6832
:20080000984700212000EB68984701230022617A20002E69B0473F22237A9343802B0BD15C
:20082000617B7F3B3B3A20002E69B047217B0123032220002E69B04701232E69A17A1A007C
:200840002000B0472E69E17A200001230222B0472E69A17B200001230522B0470026236969
:2008600020009E60A28801215A61A279F0331A60EB6898476B69310020009847300070BD08
:20088000A0931200F0B5040085B0019102920393FFF7FAFD230014330700180000932569E2
:2008A00000F01BFC03000220002B24D0134E00212000F36898470221200073699847104BB8
:2008C000043F2B6000232F650127EB640233029AEB640199039B2800AF60FFF767FF03210D
:2008E000200073699847F368390020009847009800F001FC002005B0F0BDC046A093120038
:2009000000010700F0B5060085B00C0002920393FFF7BAFD3300143318000193356900F058
:20092000DCFB03000220002B28D0184F00213000FB6898477B69022130009847144B2B609E
:200940000123AB60002303999AB2914218D804232C61AA6A1A42FCD00123AC6A1C40FCD147
:20096000AC60032130007B692C619847FB68012130009847019800F0BEFB200005B0F0BD6F
:20098000029AD25C01332A66DDE7C046A093120000010700F0B5050085B002910392009318
:2009A000FFF772FD2B00143307001800019300F094FB03000220002B33D01B4E0021280029
:2009C000F3682C6998470221280073699847174B043F2360002327650127E3640233E36480
:2009E000039BA7602366009B02991A0CFF231A402266009A2000120A1A402266009A1340C4
:200A000023660A9A0B9BFFF7D1FE0321280073699847F368390028009847019800F06BFBAD
:200A2000002005B0F0BDC046A093120000010700F0B58FB0049314AB150004CB07001B8819
:200A4000039102930300143318000193059200F044FB03000220002B3DD0224E002138008B
:200A6000F3683C69984773690221380098471E4B2360029B013B6360072363650023E3649D
:200A80000133E364A360049BEB189D4225D12300002508A860338360059B8575C360029B99
:200AA0000361124B838206ABD91D00F0FDFA039B236106ABD87900F001FBA5600321380071
:200AC000736925619847F368012138009847019800F011FB28000FB0F0BD2A7801352266B8
:200AE000D3E7C046A09312000003070080A4FFFFF0B51F00030014338DB0050018000291CA
:200B00000392019300F0E9FA0226002859D03E4C3100636928009847E3680021280098475F
:200B2000297A2C698B068A074ED11B0F083BDBB2F022DB02D2011340882289079200890FC9
:200B4000114322000B43F43213602B7A2F4A9B095B05134323607B1E636000260123E6644D
:200B6000A360EB7928002366129B2366FFF78CFC874234D907236365063BE364230006A888
:200B8000EC338360039B8675C360214B0761838204ABDE1D310000F087FA029B30782361A9
:200BA00000F08CFA0026A6602661174C01212800E36898472800636903219847019800F0B5
:200BC0009AFA30000DB0F0BD180F0E003F239E43031FDBB2802EABD10238C3B2A8E7029BBB
:200BE00023610423A26A1A42FCD00122A36A1340FCD12200EC32BB42D4D21068039E990031
:200C000001338851DBB2F6E7A093120000021F0092A4FFFF70B5050014300E00140000F043
:200C20005CFA022300281FD0104B0021DB682800984786202B7A2A6999069B07090F9B0F7B
:200C40008000C90203430B431100F4310B602B7A07499B095B050B4313600123A408013C4D
:200C60005460166193600023180070BDA093120000021F00006960307047C07970470000E8
:200C800070B5060014360500300000F041FA032400280ED001222B699C6A1440FCD19C6078
:200CA0001C61054B2800DB6801219847300000F022FA200070BDC046A093120002220123DF
:200CC00010B50A4C0100E01DA371A280D8F60CFF192363720133A3720133E372013323733F
:200CE00001336373053BA37310BDC046D893120010B50248FFF780FD10BDC046D893120072
:200D000010B502000B0002480121FFF7BBFD10BDD893120010B502000B0002480121FFF769
:200D2000F1FD10BDD893120007B5019300920B00020001210148FFF72DFE0EBDD8931200B8
:200D400007B5019300920B00020001210148FFF76FFE0EBDD893120007B50B000092012113
:200D600002000248FFF7C4FE0EBDC046D893120010B5020001210248FFF74CFF10BDC046DA
:200D8000D893120010B50248FFF777FF10BDC046D893120010B50248FFF76CFF10BDC046C8
:200DA000D893120010B50248FFF76AFF10BDC046D89312000C234B43426830B59D5858233C
:200DC0004B43C4680648E318DA69854202D91043D86130BD120B12032A43DA61F9E7C046F2
:200DE000FF0F000070B50400EFF3108672B6437A002B12D1BA22C36892009A58002A0CD1BF
:200E0000C22292009B58002B07D1064D0121EB6898476B69032120009847002E00D162B6B1
:200E200070BDC04688931200EFF3108372B601228A40110002788A430270002B00D162B6EA
:200E40007047000070B504000126174D6B689847EB682000002198472B682000022198474D
:200E60002B68200000219847E6233100E2689B00D650237AFC2099400B00013BDBB21902F9
:200E8000800101403F2003400B43CC21890053502039535020006B6900219847EB68310013
:200EA00020009847002070BD88931200F0B506000D000024012085B00392337AA34202D886
:200EC000052005B0F0BD0300A34002936B461B7AEFF3108172B6777A3A001A407DD13B43DE
:200EE0007372002905D162B6002A02D00134E4B2E3E7FF2CE4D00C2363437268384FD31865
:200F00002A6800215A606A6830009A602A691A60FB6898477B6902213000984721003000B2
:200F2000FFF748FF7023697D0B40202B4DD0102B4FD0002B01D100930193AA8A0B07D205AD
:200F4000520F5B0FF068DB02AE7D92031A432B7DF60932435E079B06760E5B0F32435B0094
:200F60001343C0220904920311400B435821019A614352021343009A0026D2011343421853
:200F80009361AB7D16645B061B0FDF026B695B031B0FDB013B4302273B435364AB680B50CD
:200FA000EB6802999360FC22029B92011B0213403F220A401343E822920083500398B04295
:200FC00000D17EE7047030007BE7002300930233B2E7022300930023AEE7002986D182E7F8
:200FE00088931200F0B5037A050085B00E0001208B4246D90700EB688F400093E823009AEC
:201000009B00D2587B427B411A423CD158237343009AD3189A69024237D10C2272430192AE
:20102000FC223902920111403F223A40114302910393B022009B92009B581F42F9D0CE230E
:20104000009A9B00D750039B019ADC696B6824059B181A68240D141B1C6009D03100280077
:20106000FFF7A8FEE823009A02999B00D150E0E7280031000930FFF7D7FE2800FFF7B2FEE6
:20108000200005B0F0BD0320FBE70420F9E7000000487047FF0F000010B50248FFF7D2FEE3
:2010A00010BDC046F093120010B50A0001000248FFF7FCFE10BDC046F093120010B5010090
:2010C0000148FFF78FFF10BDF093120089000A507047002389000B5070470200EFF3108114
:2010E00072B603780020834201D101301070002900D162B67047EFF3108272B60378002BDA
:2011000001D000210170002A00D162B6180070470078704707B56B46D81D0623012103703B
:20112000FFF7EEFD0EBD73B56B46DD1D052301242B706B469E1D3200230021002800FFF748
:20114000FFFD3378234201D00028F2D076BDF8B504000D0017001E00FFF7DCFF002809D1CF
:201160003B00320029002000FFF7DEFD002801D1FFF7D9FFF8BD7FB56B46DD1D0C0016006A
:201180002870FFF7C7FF002809D1002E09D001212800FFF7B5FD002801D1FFF7C4FF04B099
:2011A00070BD2B7803A80370230C4370230A8370C4700421EDE710B51202FFF7CDFD10BDAC
:2011C00010B5FFF7BDFD10BDF7B56B4600AF06000D0014007B60FFF79DFF002814D12300FD
:2011E0006A460833DB08DB00D31A9D4629001E70581C2200D8F678FC611C6846FFF78AFD3F
:20120000002801D1FFF78FFF7B689D46BD46FEBDF0B5032587B006000F001400154017D063
:201220000200012105A8FFF7B8F9002803D00025280007B0F0BD04235D1BBD4200D93D00D6
:2012400020002A0005A9D8F64FFC641976197F1BFFF71EFFBB0803900193019B002B10D132
:2012600003331F40019DE3D03200012105A8FFF794F9051EDBD13A0005A92000D8F634FC2F
:20128000D6E7039B019A0293934200D902926B46320019892000FFF780F9051EC8D1029B14
:2012A000029A9B00F618E418019B9B1AD4E7F7B5FF23050007000C0000929D43A84212D0BD
:2012C0002D1A6E1CFF368E4200D90E00009B320039000220FFF70EF900281AD1009BBD19A8
:2012E0009B190093A41B80272E00230A9BB21B025B1901937F00009B019A5B1B9B199642BD
:2013000008D10020E2B2824203D031000230FFF7F1F8FEBD3A0031000220FFF7EBF800281E
:20132000F7D10136FF36E6E710B50400042907D8080000F023F803030A0D10000022202332
:2013400021001800FFF7F1F810BD00225223F7E70022D823F4E701226023F1E707B50300FE
:2013600068460730037093B20A000121FFF7FAF80EBD10B5FFF72CF910BD000002B47146D7
:2013800049084900095C49008E4402BC7047C046F8B5C046F8B5C046898312007D83120022
:2013A000000000006D83120000000000C1831200000000001384120000000000FF83120098
:2013C00021841200FD831200998412007D841200000012000300000003000000000000006A
:2013E0000000000000000000E987120000000000000000000000000000003020000000001B
:1E140000358E1200149912000600000000001220000000000C94120008040000136CC5
:00000001FF
